:04000000BBEF09F059
:1008000000496E736572742074656D7000455252B4
:090810004F52004F4B415900000A
:10081A001250800B1B6E12501224216E11AE18EF6B
:10082A0004F01AEF04F01BEF04F021802150D8B431
:10083A0021EF04F023EF04F036EF04F02128D8A4C6
:10084A0029EF04F02BEF04F033EF04F0000E0F6EE3
:10085A00000E106E000E116E000E126E118E3EEF1B
:10086A0004F0000E0F6E000E106E000E116E000ED8
:10087A00126E1650800B1B1A16501624206E15AED7
:10088A0049EF04F04BEF04F04CEF04F020802050C5
:10089A00D8B452EF04F054EF04F067EF04F02028C4
:1008AA00D8A45AEF04F05CEF04F064EF04F0000EF1
:1008BA00136E000E146E000E156E000E166E158E57
:1008CA006FEF04F0000E136E000E146E000E156E1C
:1008DA00000E166E2050D8B475EF04F077EF04F0CE
:1008EA007FEF04F02150D8A47DEF04F07FEF04F0ED
:1008FA0089EF04F0000E0F6E000E106E000E116EDE
:10090A00000E126E21EF06F015500F02F3CF26F0FB
:10091A00F4CF27F026501C6E1D6A1E6A1F6A2750E4
:10092A00226E236A246A256A14501002F3CF26F035
:10093A00F4CF27F026501C26000E1D221E221F224D
:10094A0027502226000E2322242225221350110288
:10095A00F3CF26F0F4CF27F026501C26000E1D22D6
:10096A001E221F2227502226000E2322242225225D
:10097A001EC01FF01DC01EF01CC01DF01C6A1350C3
:10098A001002F3CF26F0F4CF27F026501C2627506A
:10099A001D22000E1E22000E1F2214500F02F3CF3A
:1009AA0026F0F4CF27F026501C2627501D22000ED1
:1009BA001E22000E1F221EC01FF01DC01EF01CC0EA
:1009CA001DF01C6A13500F02F3CF26F0F4CF27F064
:1009DA0026501C2627501D22000E1E22000E1F2202
:1009EA0015501002F3CF26F0F4CF27F02650222616
:1009FA0027502322000E2422000E25221450110211
:100A0A00F3CF26F0F4CF27F02650222627502322B0
:100A1A00000E2422000E252215501102F3CF26F0D3
:100A2A00F4CF27F02650176E2750186E196A1A6AE3
:100A3A0019C01AF018C019F017C018F0176A175021
:100A4A00222618502322195024221A5025221CC06B
:100A5A0017F01DC018F01EC019F01FC01AF0190EA9
:100A6A003CEF05F0D8901A32193218321732E82EB4
:100A7A0037EF05F017502226185023221950242246
:100A8A001A5025221EC01FF01DC01EF01CC01DF0EA
:100A9A001C6A205021C017F0186A1726000E182267
:100AAA00820E1724266EFF0E1820276E72EF05F0AD
:100ABA00D89022362336243625361FAE67EF05F046
:100ACA0069EF05F06AEF05F02280D8901C361D36D2
:100ADA001E361F362606D8A0270624AE77EF05F065
:100AEA0079EF05F05DEF05F0000E206E1FAE80EF86
:100AFA0005F082EF05F0A6EF05F0FF0E1C14176E45
:100B0A00FF0E1D14186EFF0E1E14196E7F0E1F1491
:100B1A001A6E1750181019101A10D8B497EF05F05A
:100B2A0099EF05F09DEF05F0010E206EA6EF05F096
:100B3A0022A0A2EF05F0A4EF05F0A6EF05F099EFC9
:100B4A0005F02050D8B4ACEF05F0AEEF05F0D2EFC7
:100B5A0005F0010E2226000E23222422252225A09A
:100B6A00B9EF05F0BBEF05F0D2EF05F022C017F0A0
:100B7A0023C018F024C019F025C01AF01A341A320A
:100B8A0019321832173217C022F018C023F019C0D0
:100B9A0024F01AC025F0264A272A27BEDDEF05F0E1
:100BAA00275008E12628D8A0DDEF05F0DFEF05F091
:100BBA00E9EF05F0000E226E000E236E800E246E01
:100BCA007F0E256E17EF06F027BEF6EF05F02750C9
:100BDA0006E12604D8B0F4EF05F0F6EF05F002EFCF
:100BEA0006F0000E226E000E236E000E246E000E1A
:100BFA00256E000E1B6E17EF06F026C021F0FF0EC1
:100C0A002216FF0E23167F0E2416000E251621A08B
:100C1A0011EF06F013EF06F014EF06F0248ED890C9
:100C2A002130256E1B50251222C00FF023C010F070
:100C3A0024C011F025C012F01200F00E936EF00ECF
:100C4A008A6E8150F00B526EF00E5218D8A430EF13
:100C5A0006F032EF06F026EF06F08150F00B526EE6
:100C6A00F00E5218D8A43CEF06F03EEF06F026EF3D
:100C7A0006F0820E016EDE0EE82EFED7012EFCD79C
:100C8A00F00E8A6E8150F00B526EF00E5218D8B4E4
:100C9A0051EF06F053EF06F047EF06F08150F00BE4
:100CAA00526EF00E5218D8B45DEF06F05FEF06F000
:100CBA0047EF06F0340E016EF20EE82EFED7012E33
:100CCA00FCD78150F00B526EFE0E8A6E8150F00BEB
:100CDA00526E52C050F0F00E5218D8B477EF06F0A8
:100CEA0079EF06F08BEF06F0000E516E80EF06F0FA
:100CFA008150F00B506EF00E5018D8A487EF06F012
:100D0A0089EF06F07DEF06F0EFEF06F0FD0E8A6E32
:100D1A008150F00B526E52C050F0F00E5218D8B4F7
:100D2A0099EF06F09BEF06F0ADEF06F0010E516E5B
:100D3A00A2EF06F08150F00B506EF00E5018D8A4B6
:100D4A00A9EF06F0ABEF06F09FEF06F0EFEF06F023
:100D5A00FB0E8A6E8150F00B526E52C050F0F00EAC
:100D6A005218D8B4BBEF06F0BDEF06F0CFEF06F08D
:100D7A00020E516EC4EF06F08150F00B506EF00E69
:100D8A005018D8A4CBEF06F0CDEF06F0C1EF06F06D
:100D9A00EFEF06F0F70E8A6E8150F00B526E52C0DA
:100DAA0050F0F00E5218D8B4DDEF06F0DFEF06F07F
:100DBA0069EF06F0030E516EE6EF06F08150F00B74
:100DCA00506EF00E5018D8A4EDEF06F0EFEF06F0D3
:100DDA00E3EF06F0E00E5218D8A4F6EF06F0F8EFAB
:100DEA0006F003EF07F05150030D3B0EF324D96EC2
:100DFA00000EF420DA6EDF5034EF07F0D00E5218EE
:100E0A00D8A40AEF07F00CEF07F017EF07F05150DC
:100E1A00030D3C0EF324D96E000EF420DA6EDF5077
:100E2A0034EF07F0B00E5218D8A41EEF07F020EFE7
:100E3A0007F02BEF07F05150030D3D0EF324D96E46
:100E4A00000EF420DA6EDF5034EF07F05150030D34
:100E5A003E0EF324D96E000EF420DA6EDF50120033
:100E6A000F0EC16E010E926EF00E936E000E946E0E
:100E7A00000E956E700ED312D350FC0B0209D36E7E
:100E8A00720ED36E7FEC0AF0F19E4FEC0AF069EC19
:100E9A000AF001C04DF002C04EF0030E4F6058EF49
:100EAA0007F05AEF07F0ABEF07F0ACEC0AF0000ED0
:100EBA00056E010E066E080E076E000EDEEC09F0D6
:100ECA00C00E93EC09F022EC06F03A6E3A506BEC45
:100EDA0009F0470E4F24D96EDA6A000EDA223AC0B8
:100EEA00DFFF310E47647CEF07F07EEF07F097EFE4
:100EFA0007F0340E476084EF07F086EF07F097EFAC
:100F0A0007F0330E4718D8A48DEF07F08FEF07F0DC
:100F1A009DEF07F0380E486495EF07F097EF07F05A
:100F2A009DEF07F019EC0AF0230E3A6E030E4F6E8E
:100F3A004F2A230E3A18D8A4A5EF07F0A7EF07F017
:100F4A0068EF07F0000E4F6EFEEC09F0D00E472452
:100F5A00016E026AFF0E0222000E046E0A0E036E72
:100F6A0092EC0AF001C036F002C037F0485036243D
:100F7A00346E000E3720356ED00E3424386EFF0ED4
:100F8A003520396E5A0E136EF50E146EF90E156E63
:100F9A003E0E166E4DC001F04EC002F0036A046A9E
:100FAA00000E0FEC08F001C00FF002C010F003C0F1
:100FBA0011F004C012F00DEC04F00FC028F010C0BC
:100FCA0029F011C02AF012C02BF038C001F039C044
:100FDA0002F0000E02BEFF0E036E046E010E0FEC4D
:100FEA0008F001C02CF002C02DF003C02EF004C09E
:100FFA002FF0E9EC08F0D8B005EF08F007EF08F099
:10100A000AEF08F089824CEF07F089924CEF07F05B
:10101A0000EF00F0096E0950D8B416EF08F018EF87
:10102A0008F03AEF08F004BE1FEF08F01DEF08F0D1
:10103A003AEF08F001C005F002C006F003C007F05D
:10104A0004C008F0051E061E071E081E052A000E0B
:10105A0006220722082205C00BF006C00CF007C0C2
:10106A000DF008C00EF042EF08F001C00BF002C00C
:10107A000CF003C00DF004C00EF001500210031072
:10108A000410D8A44BEF08F04DEF08F057EF08F022
:10109A00000E016E000E026E000E036E000E046E4C
:1010AA00E8EF08F0960E0A6E61EF08F00A2AD89067
:1010BA000E320D320C320B32000E0B14056E000E7E
:1010CA000C14066E000E0D14076EFE0E0E14086E3A
:1010DA000550061007100810D8A476EF08F078EF2C
:1010EA0008F05BEF08F086EF08F00A2A010E0B26DB
:1010FA00000E0C220D220E22D8900E320D320C3226
:10110A000B32000E0B14056E000E0C14066E000E48
:10111A000D14076EFF0E0E14086E05500610071008
:10112A000810D8A49BEF08F09DEF08F07AEF08F0BA
:10113A00A5EF08F00A06D8900B360C360D360E3697
:10114A000DBEAAEF08F0ACEF08F0B4EF08F0020EFB
:10115A000A60B2EF08F0B4EF08F09FEF08F00AB0A7
:10116A00B9EF08F0BBEF08F0BCEF08F00D9ED8907D
:10117A000A320AC005F0066A076A086A05C008F05A
:10118A00076A066A056A05500B1206500C120750C8
:10119A000D1208500E120950D8B4D6EF08F0D8EF45
:1011AA0008F0E0EF08F004BEDFEF08F0DDEF08F02A
:1011BA00E0EF08F00E8E0BC001F00CC002F00DC07B
:1011CA0003F00EC004F01200000E2814306E000E58
:1011DA002914316E800E2A14326E7F0E2B14336E50
:1011EA003050311032103310D8A4FEEF08F000EF5F
:1011FA0009F008EF09F0000E286E000E296E000EA5
:10120A002A6E000E2B6E000E2C14306E000E2D145A
:10121A00316E800E2E14326E7F0E2F14336E3050C4
:10122A00311032103310D8A41DEF09F01FEF09F066
:10123A0027EF09F0000E2C6E000E2D6E000E2E6E9A
:10124A00000E2F6E2BAE2CEF09F02EEF09F037EFC0
:10125A0009F0286C291ED8B0292A2A1ED8B02A2AB1
:10126A00800E2B562FAE3CEF09F03EEF09F047EF08
:10127A0009F02C6C2D1ED8B02D2A2E1ED8B02E2A7D
:10128A00800E2F56000E281A000E291A000E2A1A4E
:10129A00800E2B1A000E2C1A000E2D1A000E2E1A72
:1012AA00800E2F1A2C50285C2D5029582E502A585F
:1012BA002F502B58D8B064EF09F066EF09F069EFA8
:1012CA0009F0D8906AEF09F0D8801200026E02C0C5
:1012DA0001F0F00E01168C500F0B01108C6E8C80F1
:1012EA008C8200F08C92030E016E980EE82EFED7C7
:1012FA00012EFCD702C001F0013AF00E01168C5003
:10130A000F0B01108C6E8C8200F08C92080E016E0D
:10131A00CA0EE82EFED7012EFCD71200026E02C0BA
:10132A0001F0F00E01168C500F0B01108C6E8C9090
:10133A008C8200F08C92030E016E980EE82EFED776
:10134A00012EFCD702C001F0013AF00E01168C50B2
:10135A000F0B01108C6E8C8200F08C92080E016EBD
:10136A00CA0EE82EFED7012EFCD712004A0EF66EE0
:10137A00150EF76E000EF86E00EE3BF010EE0EF052
:10138A000900F5CFEEFFE550E150FAE100EE60F01A
:10139A00100EEE6AE806FDE100EE49F00A0EEE6A6A
:1013AA00E806FDE1000EF86E080EF76E000135EF53
:1013BA0007F0086E020E0860E5EF09F0E7EF09F0A2
:1013CA00F0EF09F005500F0B8009096E095093ECF4
:1013DA0009F0F7EF09F005500F0BC009096E095023
:1013EA0093EC09F006C003F007C004F034EC0AF0ED
:1013FA001200ACEC0AF08B82000E056E130E066E1C
:10140A00080E076E000EDEEC09F0060E0B6E130EC8
:10141A000A6EAE0EE82EFED70A2EFCD70B2EFAD78E
:10142A008B92ACEC0AF01200ACEC0AF08B80000E46
:10143A00056E0D0E066E080E076E000EDEEC09F044
:10144A00060E0B6E130E0A6EAE0EE82EFED70A2E8D
:10145A00FCD70B2EFAD78B90ACEC0AF0120040EFB7
:10146A000AF003C0F6FF04C0F7FF0800F5506BEC62
:10147A0009F0034A042A03C0F6FF04C0F7FF080074
:10148A00F5500009D8A44CEF0AF04EEF0AF036EFF7
:10149A000AF01200000E956E270E036EF50EE82E66
:1014AA00FED7032EFCD700F0020E93EC09F0280EAB
:1014BA0093EC09F0010E93EC09F00C0E93EC09F091
:1014CA00060E93EC09F01200C282C2B26FEF0AF064
:1014DA0071EF0AF06AEF0AF0C4CF05F0066A055008
:1014EA00036EC350056E03C006F005C001F006C0C6
:1014FA0002F01200C150F00B0E09C16ECF0EC116D8
:10150A00C30EC216C050C70B1009C06EC050F80BEC
:10151A000109C06EC08EC280120001500302F3CFCF
:10152A0005F0F4CF06F001500402F35006260250EB
:10153A000302F350062605C001F006C002F01200AD
:10154A003132333435363738392A30232020010EE8
:06155A0093EC09F0120001
:020000040020DA
:08000000FFFFFFFFFFFFFFFF00
:020000040030CA
:0E0000000088181EFF8181FF0FC00FE00F4027
:00000001FF
