:0400000025EF1DF0DB
:10080000005072657373202320746F2073746172BB
:10081000740054656D706572617475726100496E23
:10082000736572742074656D70004552524F5200AA
:10083000252E326C66004F4B415900494E46004E02
:10084000414E00696E66006E616E0000000E000190
:100850007B6F000E7A6F36C08CF037C08DF038C0D9
:100860008EF039C08FF08FBF3AEF04F038EF04F00C
:1008700050EF04F0000E7B6F010E7A6F8CC001F018
:100880008DC002F08EC003F08FC004F082EC1DF02A
:1008900001C08CF002C08DF003C08EF004C08FF058
:1008A000000E0001936F000E926FBBC07EF0BCC0C3
:1008B0007FF07A517B11D8A460EF04F062EF04F06E
:1008C00069EF04F0BFA567EF04F069EF04F083EF70
:1008D00004F07A517B11D8A470EF04F072EF04F0A9
:1008E00078EF04F0000E616F2B0E606F7CEF04F068
:1008F000000E616F2D0E606F60C000F1924B932B64
:100900007E07D8A07F078CC001F08DC002F08EC09A
:1009100003F08FC004F021EC18F001040210D8A4F9
:1009200094EF04F096EF04F0EDEF04F0BF0E3B6E91
:10093000FF0E3C6E3A503D6E3E6A3B503D263C50A9
:100940003E223E500AE11A0E3D5CD8A0AAEF04F008
:10095000ADEF04F0010EAEEF04F0000E0001626F87
:10096000636B62516311D8B4B8EF04F0BAEF04F0CE
:10097000C8EF04F0000E9225016E010E9321026E65
:100980003B0E036E080E046E10EC1CF0D4EF04F066
:10099000000E9225016E010E9321026E430E036E2E
:1009A000080E046E10EC1CF00001FD0E7E27FF0EF9
:1009B0007F2334C011F035C012F0000E136E010E0B
:1009C000146E7EC015F07FC016F070EC19F011C0E7
:1009D00034F012C035F051EF0AF08CC001F08DC038
:1009E00002F08EC003F08FC004F021EC18F001502B
:1009F0000210D8A4FEEF04F000EF05F040EF05F080
:100A0000BF0E3B6EFF0E3C6E3A503D6E3E6A3B5051
:100A10003D263C503E223E500AE11A0E3D5CD8A0D5
:100A200014EF05F017EF05F0010E18EF05F0000EBA
:100A30000001646F656B64516511D8B422EF05F055
:100A400024EF05F032EF05F0000E9225016E010E45
:100A50009321026E3F0E036E080E046E10EC1CF024
:100A6000D4EF04F0000E9225016E010E9321026E68
:100A7000470E036E080E046E10EC1CF0D4EF04F069
:100A8000000E0001946F000E956F800E966F3F0E62
:100A9000976F000E916F000E906F8CC001F08DC0AB
:100AA00002F08EC003F08FC004F0000E056E000E41
:100AB000066E000E076E000E086EEFEC1AF0D8B04E
:100AC00064EF05F066EF05F0E9EF05F085EF05F05E
:100AD00094C00FF095C010F096C011F097C012F0BE
:100AE000000E136E000E146E200E156E410E166E63
:100AF000E2EC0EF00FC094F010C095F011C096F02B
:100B000012C097F00001904B912B8CC028F08DC043
:100B100029F08EC02AF08FC02BF0000E136E000E4D
:100B2000146E200E156E410E166E94C00FF095C017
:100B300010F096C011F097C012F0E2EC0EF00FC06A
:100B40002CF010C02DF011C02EF012C02FF09FEC31
:100B500017F0D8B0AEEF05F0B0EF05F068EF05F094
:100B6000D0EF05F094C001F095C002F096C003F0FC
:100B700097C004F0000E056E000E066E200E076E84
:100B8000410E086EF7EC10F001C094F002C095F031
:100B900003C096F004C097F000019007D8A0910719
:100BA0008CC028F08DC029F08EC02AF08FC02BF0A9
:100BB00094C02CF095C02DF096C02EF097C02FF069
:100BC0009FEC17F0D8A0E7EF05F0E9EF05F0B2EFE2
:100BD00005F03AC007F0086AB1EC1BF007500001BD
:100BE000816F81C080F0670E8119D8A4FAEF05F0FB
:100BF000FCEF05F022EF06F0BD51BE11D8A403EFC3
:100C000006F005EF06F009EF06F0000EBE6F010ECC
:100C1000BD6FBEBF16EF06F0BE5106E1BD05D8B0F0
:100C200014EF06F016EF06F01CEF06F0000E7D6FD5
:100C3000060E7C6F2BEF06F0BDC07CF0BEC07DF0D1
:100C40002BEF06F0BEBF27EF06F029EF06F016EFF8
:100C500006F01CEF06F0670E8119D8A432EF06F0FB
:100C600034EF06F063EF06F091AF42EF06F0FC0EB2
:100C7000905DFF0E9159D8A040EF06F042EF06F0CC
:100C800061EF06F0FF0E3B6EFF0E3C6E7CC03DF048
:100C90007DC03EF03B503D263C503E2290513D5C95
:100CA0003E50800A3F6E9151800A3F58D8A05BEFBA
:100CB00006F05DEF06F061EF06F0660E806F63EF01
:100CC00006F0650E806F7CC072F07DC073F0670E19
:100CD0008119D8A46EEF06F070EF06F080EF06F0F1
:100CE000660E8019D8A477EF06F079EF06F082EF50
:100CF00006F091BF80EF06F07EEF06F082EF06F07F
:100D0000724B732B660E8019D8A489EF06F08BEF17
:100D100006F0ABEF06F091BF92EF06F090EF06F011
:100D20009EEF06F0000E946F000E956F800E966F8A
:100D30003F0E976F000E916F000E906F670E811936
:100D4000D8B4A5EF06F0A7EF06F0ABEF06F0905190
:100D5000722791517323000E8B6F000E8A6F8CC027
:100D600082F08DC083F08EC084F08FC085F094C077
:100D700074F095C075F096C076F097C077F03CEFB0
:100D800007F082C001F083C002F084C003F085C088
:100D900004F094C005F095C006F096C007F097C027
:100DA00008F0F7EC10F001C01AF002C01BF003C00D
:100DB0001CF004C01DF0DAEC13F01AC086F01BC062
:100DC00087F01CC088F01DC089F086C001F087C084
:100DD00002F088C003F089C004F01CEC17F001C0D9
:100DE00078F002C079F082C028F083C029F084C076
:100DF0002AF085C02BF094C013F095C014F096C073
:100E000015F097C016F086C00FF087C010F088C0AC
:100E100011F089C012F0E2EC0EF00FC02CF010C0FF
:100E20002DF011C02EF012C02FF0E0EC1CF028C005
:100E300082F029C083F02AC084F02BC085F094C0D2
:100E400001F095C002F096C003F097C004F0000EC8
:100E5000056E000E066E200E076E410E086EF7EC52
:100E600010F001C094F002C095F003C096F004C0E9
:100E700097F000018A4B8B2B72518A5D8B51800A4F
:100E80003B6E7351800A3B58D8A049EF07F04BEFF7
:100E900007F0C1EF06F094C00FF095C010F096C0B7
:100EA00011F097C012F0000E136E000E146EA00E1B
:100EB000156E400E166EE2EC0EF00FC086F010C0FC
:100EC00087F011C088F012C089F082C028F083C07A
:100ED00029F084C02AF085C02BF086C02CF087C092
:100EE0002DF088C02EF089C02FF09FEC17F0D8B0FD
:100EF0007CEF07F07EEF07F089EF07F0000E0001AE
:100F0000866F000E876F000E886F000E896FB2EF3C
:100F100007F082C001F083C002F084C003F085C0F6
:100F200004F086C005F087C006F088C007F089C0CD
:100F300008F0EFEC1AF0D8A0A0EF07F0A2EF07F04E
:100F4000B2EF07F0000178B1A8EF07F0AAEF07F0C1
:100F5000B2EF07F0000E866F000E876F000E886FED
:100F6000000E896F8CC001F08DC002F08EC003F0BE
:100F70008FC004F086C005F087C006F088C007F077
:100F800089C008F052EC0AF001C082F002C083F080
:100F900003C084F004C085F082C028F083C029F02B
:100FA00084C02AF085C02BF0000E136E000E146E64
:100FB000200E156E410E166E74C00FF075C010F045
:100FC00076C011F077C012F0E2EC0EF00FC02CF0FA
:100FD00010C02DF011C02EF012C02FF09FEC17F0B2
:100FE000D8A0F5EF07F0F7EF07F020EF08F00001C9
:100FF000904B912B74C00FF075C010F076C011F0BB
:1010000077C012F0000E136E000E146E200E156ED7
:10101000410E166EE2EC0EF00FC074F010C075F0C9
:1010200011C076F012C077F0660E00018019D8A4C6
:101030001CEF08F01EEF08F020EF08F0724B732B46
:1010400074C094F075C095F076C096F077C097F0B4
:10105000650E00018019D8B430EF08F032EF08F0C7
:1010600038EF08F090C070F091C071F03CEF08F0DC
:10107000000E716F000E706F000E6F6F000E6E6FBE
:10108000000E6D6F000E6C6F000E8B6F000E8A6F7E
:1010900037EF09F082C001F083C002F084C003F092
:1010A00085C004F094C005F095C006F096C007F026
:1010B00097C008F0F7EC10F001C01AF002C01BF066
:1010C00003C01CF004C01DF0DAEC13F01AC086F067
:1010D0001BC087F01CC088F01DC089F086C001F0DD
:1010E00087C002F088C003F089C004F01CEC17F040
:1010F00001C078F002C079F00001BFB982EF08F0BA
:1011000084EF08F0A1EF08F078517911D8A48BEFA3
:1011100008F08DEF08F0A1EF08F0670E8119D8A450
:1011200094EF08F096EF08F0A1EF08F071BF9DEF83
:1011300008F09BEF08F0A1EF08F06C4B6D2BEBEF84
:1011400008F06E516F11D8A4A8EF08F0AAEF08F0CC
:10115000D4EF08F071BFB1EF08F0AFEF08F0D4EFB3
:1011600008F0000E9225D96E010E9321DA6E2E0E34
:10117000DF6E924B932B7E07D8A07F07000E6F6F18
:10118000010E6E6FD4EF08F0000E9225D96E010E9D
:101190009321DA6E300EDF6E924B932B7E07D8A030
:1011A0007F076C07D8A06D076C516D11D8A4DBEFD9
:1011B00008F0DDEF08F0C4EF08F0000E9225D96EBC
:1011C000010E9321DA6E7851300FDF6E924B932B24
:1011D0007E07D8A07F0782C028F083C029F084C092
:1011E0002AF085C02BF094C013F095C014F096C07F
:1011F00015F097C016F086C00FF087C010F088C0B9
:1012000011F089C012F0E2EC0EF00FC02CF010C00B
:101210002DF011C02EF012C02FF0E0EC1CF028C011
:1012200082F029C083F02AC084F02BC085F094C0DE
:1012300001F095C002F096C003F097C004F0000ED4
:10124000056E000E066E200E076E410E086EF7EC5E
:1012500010F001C094F002C095F003C096F004C0F5
:1012600097F000017007D8A071078A4B8B2B725141
:101270008A5D8B51800A3B6E7351800A3B58D8B00F
:1012800044EF09F046EF09F054EF09F093BF52EF35
:1012900009F0935109E14B0E925DD8A052EF09F08D
:1012A00054EF09F04AEF08F06E516F11D8A45BEFCC
:1012B00009F05DEF09F06EEF09F0BFA962EF09F0E8
:1012C00064EF09F06EEF09F0000E9225D96E010E61
:1012D0009321DA6E2E0EDF6E924B932B000E922529
:1012E000D96E010E9321DA6E000EDF6E650E801945
:1012F000D8A47DEF09F07FEF09F0D9EF04F0000EDC
:101300008B6F4F0E8A6F000E8A25D96E010E8B21CE
:10131000DA6E000EDF6E000E7B6F000E7A6F91BFEB
:1013200096EF09F094EF09F09EEF09F0000E7B6F45
:10133000010E7A6F906D911FD8B0912B000E7D6FCA
:10134000020E7C6FCFEF09F08A07D8A08B07000E42
:101350008A25D96E010E8B21DA6E90C001F091C002
:1013600002F0000E046E0A0E036E97EC1AF00150A4
:10137000300FDF6E90C001F091C002F0000E046EDD
:101380000A0E036E35EC1AF001C090F002C091F025
:1013900000017C07D8A07D077E07D8A07F07905169
:1013A0009111D8A4D6EF09F0D8EF09F0A4EF09F015
:1013B0007DBFE5EF09F07D5106E17C05D8B0E3EF94
:1013C00009F0E5EF09F0A4EF09F08A07D8A08B0730
:1013D0007A517B11D8A4EFEF09F0F1EF09F0F7EFA4
:1013E00009F0000E676F2B0E666FFBEF09F0000E21
:1013F000676F2D0E666F000E8A25D96E010E8B2148
:10140000DA6E66C0DFFF7E07D8A07F078A07D8A004
:101410008B07BF0E3B6EFF0E3C6E3A503D6E3E6A30
:101420003B503D263C503E223E500AE11A0E3D5CA8
:10143000D8A01DEF0AF020EF0AF0010E21EF0AF00C
:10144000000E6A6F6B6B6A516B11D8A42AEF0AF019
:101450002CEF0AF032EF0AF0000E696F650E686F2C
:1014600036EF0AF0000E696F450E686F000E8A2590
:10147000D96E010E8B21DA6E68C0DFFF7E07D8A01F
:101480007F07000E9225016E010E9321026E000E61
:101490008A25036E010E8B21046E10EC1CF0D9EF2F
:1014A00004F012000450800B0D6E045004240F6EE3
:1014B00003AE5DEF0AF05FEF0AF060EF0AF00F8015
:1014C0000F50D8B466EF0AF068EF0AF07DEF0AF02B
:1014D0000F28D8A46EEF0AF070EF0AF078EF0AF048
:1014E000000E016E000E026E000E036E000E046E02
:1014F000038E000E046E85EF0AF0000E016E000EE2
:10150000026E000E036E000E046E0850800B0E6E0D
:101510000D500E18D8B48FEF0AF091EF0AF092EF49
:101520000AF00D8C085008240E6E07AE9AEF0AF0F0
:101530009CEF0AF09DEF0AF00E800E50D8B4A3EF96
:101540000AF0A5EF0AF0BAEF0AF00E28D8A4ABEF24
:101550000AF0ADEF0AF0B5EF0AF0000E056E000ECE
:10156000066E000E076E000E086E078E000E086EE7
:10157000C2EF0AF0000E056E000E066E000E076E3A
:10158000000E086E0F500E5CD8B0C9EF0AF0CBEF1A
:101590000AF0F2EF0AF00DACD0EF0AF0D2EF0AF049
:1015A000D4EF0AF0800E0D1A0FC010F00EC00FF02D
:1015B00010C00EF001C010F005C001F010C005F021
:1015C00002C010F006C002F010C006F003C010F018
:1015D00007C003F010C007F004C010F008C004F00A
:1015E00010C008F0000E106E0F500EC009F00A6A0D
:1015F000095E000E0A5A0ABE07EF0BF00A5009E115
:101600001A0E095CD8A007EF0BF009EF0BF040EFC2
:101610000BF00150021003100410D8A412EF0BF0CD
:1016200015EF0BF0010E16EF0BF0000E106E000E12
:10163000016E000E026E000E036E000E046E0EC0F0
:101640000FF049EF0BF010A028EF0BF02AEF0BF092
:1016500030EF0BF0D89010300109106E32EF0BF024
:10166000D890103201A037EF0BF039EF0BF03AEFC2
:101670000BF0108E043404320332023201320F2A8E
:101680000E500F5CD8A047EF0BF049EF0BF023EFA3
:101690000BF00DBC4EEF0BF050EF0BF090EF0BF09A
:1016A0000F50D8A456EF0BF058EF0BF062EF0BF091
:1016B000000E016E000E026E000E036E000E046E30
:1016C000B1EF0CF00550012606500222075003220C
:1016D0000850042204A06FEF0BF071EF0BF01DEF28
:1016E0000CF010A076EF0BF078EF0BF07EEF0BF024
:1016F000D89010300109106E80EF0BF0D8901032A6
:1017000001A085EF0BF087EF0BF088EF0BF0108E48
:10171000043404320332023201320F2A1DEF0CF07E
:101720000550015C06500258075003580450800AC7
:10173000096E0850800A0958D8B0A1EF0BF0A3EF4A
:101740000BF0CEEF0BF00150055C096E025006580D
:101750000A6E035007580B6E045008580C6EFF0EAB
:101760000924016EFF0E0A20026EFF0E0B20036E8D
:10177000FF0E0C20046E800E0D1A106C1050D8A4B1
:10178000C4EF0BF0C6EF0BF0D6EF0BF0010E012605
:10179000000E022203220422D6EF0BF00550015E58
:1017A0000650025A0750035A0850045A01500210BA
:1017B00003100410D8A4DFEF0BF0E1EF0BF016EFED
:1017C0000CF01050D8A4E7EF0BF0E9EF0BF016EF98
:1017D0000CF0000E016E000E026E000E036E000E85
:1017E000046EB1EF0CF0D8900136023603360436A1
:1017F00010AEFDEF0BF0FFEF0BF000EF0CF00180EF
:1018000010A005EF0CF007EF0CF00BEF0CF0D880F8
:1018100010360DEF0CF0D89010360F50D8B413EFEF
:101820000CF015EF0CF016EF0CF00F0603AE1BEFEB
:101830000CF01DEF0CF0F3EF0BF0000E0E6E10AE7F
:1018400024EF0CF026EF0CF03EEF0CF010C009F086
:101850007F0E0916D8B42FEF0CF031EF0CF035EFF6
:101860000CF0010E0E6E3EEF0CF001A03AEF0CF002
:101870003CEF0CF03EEF0CF031EF0CF00E50D8B412
:1018800044EF0CF046EF0CF071EF0CF0010E012666
:10189000000E02220322042204A051EF0CF053EFA9
:1018A0000CF071EF0CF001C009F002C00AF003C0A7
:1018B0000BF004C00CF00C340C320B320A3209323B
:1018C00009C001F00AC002F00BC003F00CC004F024
:1018D0000F28D8B46EEF0CF070EF0CF071EF0CF035
:1018E0000F2A0F28D8B477EF0CF079EF0CF081EFC6
:1018F0000CF00F50D8A47FEF0CF081EF0CF093EFB9
:101900000CF0000E016E000E026E000E036E000E53
:10191000046E0F50D8A48FEF0CF091EF0CF093EF02
:101920000CF0000E0D6E0FA098EF0CF09AEF0CF07B
:101930009DEF0CF0038E9EEF0CF0039ED8900F30BD
:10194000046E0DAEA6EF0CF0A8EF0CF0A9EF0CF0B2
:10195000048E01C001F002C002F003C003F004C015
:1019600004F0120042C0D9FF43C0DAFFDECFF6FF19
:10197000DDCFF7FF0800F550250AD8A4C2EF0CF020
:10198000C4EF0CF0C6EF0EF042C0D9FF43C0DAFF3F
:10199000DE2A000EDD22000E0001BC6F000EBB6FC0
:1019A000BBC0BFF0BCC0C0F0BD69BE6942C0D9FFBA
:1019B00043C0DAFFDECFF6FFDDCFF7FF0800F550BA
:1019C0002E0AD8A4E6EF0CF0E8EF0CF065EF0DF06E
:1019D000000EBE6F000EBD6F42C0D9FF43C0DAFFDC
:1019E000DE2A000EDD2242C0D9FF43C0DAFFDECF7F
:1019F000F6FFDDCFF7FF0800F5502A0AD8A403EF61
:101A00000DF005EF0DF022EF0DF042C0D9FF43C0FD
:101A1000DAFFDE2A000EDD2244C0D9FF45C0DAFF1E
:101A2000DFCF46F0020EDE26DFCF47F0000EDD22CC
:101A300046C0D9FF47C0DAFFDECFBDF0DDCFBEF034
:101A400065EF0DF042C0D9FF43C0DAFFDECF08F0EA
:101A5000DDCF09F0BDEC15F008C0BDF009C0BEF047
:101A600039EF0DF042C0D9FF43C0DAFFDE2A000E85
:101A7000DD22D00E466EFF0E476E42C0D9FF43C036
:101A8000DAFFDECFF6FFDDCFF7FF0800F550486E36
:101A9000496A465048264750492249500AE10A0EF1
:101AA000485CD8A056EF0DF059EF0DF0010E5AEF3B
:101AB0000DF0000E4A6E4B6A4A504B10D8A463EFEB
:101AC0000DF065EF0DF032EF0DF042C0D9FF43C0CD
:101AD000DAFFDECFF6FFDDCFF7FF0800F550076E27
:101AE000086AB1EC1BF00750526E5250D8B47BEF2D
:101AF0000DF07DEF0DF0B5EF0DF042C0D9FF43C002
:101B0000DAFFDECF46F0DDCF47F0010E4626000EAD
:101B1000472246C0F6FF47C0F7FF0800F550076EA2
:101B2000086AB1EC1BF00750536E5350D8B49BEFCA
:101B30000DF09DEF0DF0B5EF0DF042C0D9FF43C0A1
:101B4000DAFFDECF46F0DDCF47F0020E4626000E6C
:101B5000472246C0F6FF47C0F7FF0800F550076E62
:101B6000086AB1EC1BF00750546E660E5218D8A4E8
:101B7000BCEF0DF0BEEF0DF0FEEF0DF042C0D9FF4F
:101B800043C0DAFFDECFF6FFDDCFF7FF0800F5CF69
:101B900055F042C0D9FF43C0DAFFDE2A000EDD2235
:101BA00044C0D9FF45C0DAFFDFCF46F0040EDE2681
:101BB000DFCF47F0000EDD2246C0D9FF47C0DAFF75
:101BC000DECF4EF0DECF4FF0DECF50F0DECF51F063
:101BD00040C034F041C035F04EC036F04FC037F051
:101BE00050C038F051C039F055C03AF026EC04F03E
:101BF00034C040F035C041F0E1EF0EF0520E016EFE
:101C0000000E026E330E036E080E046E000E066E9A
:101C1000020E056EA0EC18F001500210D8A413EFCC
:101C20000EF015EF0EF090EF0EF042C0D9FF43C05A
:101C3000DAFFDECF46F0DDCF47F0010E4626000E7C
:101C4000472246C0F6FF47C0F7FF0800F5CF55F022
:101C5000BF0E466EFF0E476E42C0D9FF43C0DAFF8B
:101C6000DECFF6FFDDCFF7FF0800F550486E496A7A
:101C7000465048264750492249500AE11A0E485C0E
:101C8000D8A045EF0EF048EF0EF0010E49EF0EF030
:101C9000000E4C6E4D6A4C504D10D8B452EF0EF001
:101CA00054EF0EF06EEF0EF044C0D9FF45C0DAFFDE
:101CB000DFCF46F0040EDE26DFCF47F0000EDD2238
:101CC00046C0D9FF47C0DAFFDECF4EF0DECF4FF07F
:101CD000DECF50F0DECF51F086EF0EF044C0D9FFDA
:101CE00045C0DAFFDFCF46F0040EDE26DFCF47F037
:101CF000000EDD2246C0D9FF47C0DAFFDECF4EF02E
:101D0000DECF4FF0DECF50F0DECF51F0020E42C0FA
:101D1000D9FF43C0DAFFDE26000EDD22E8EF0DF02A
:101D200042C0D9FF43C0DAFFDECFF6FFDDCFF7FFB9
:101D30000800F550250AD8A4A0EF0EF0A2EF0EF08F
:101D4000B9EF0EF042C0D9FF43C0DAFFDE2A000E21
:101D5000DD22000E026E250E016E40C003F041C070
:101D600004F00BEC19F0000E416E010E406EE1EF35
:101D70000EF042C0D9FF43C0DAFFDE2A000EDD229A
:101D8000000E416E000E406EE1EF0EF042C0D9FF32
:101D900043C0DAFFDECFF6FFDDCFF7FF0800F550D6
:101DA000016E026A40C003F041C004F00BEC19F070
:101DB00042C0D9FF43C0DAFFDE2A000EDD22B3EFB6
:101DC0000EF012001250800B1B6E12501224216E66
:101DD00011AEEDEF0EF0EFEF0EF0F0EF0EF0218010
:101DE0002150D8B4F6EF0EF0F8EF0EF00BEF0FF035
:101DF0002128D8A4FEEF0EF000EF0FF008EF0FF04F
:101E0000000E0F6E000E106E000E116E000E126EA0
:101E1000118E13EF0FF0000E0F6E000E106E000EFD
:101E2000116E000E126E1650800B1B1A16501624DF
:101E3000206E15AE1EEF0FF020EF0FF021EF0FF028
:101E400020802050D8B427EF0FF029EF0FF03CEF9F
:101E50000FF02028D8A42FEF0FF031EF0FF039EF5B
:101E60000FF0000E136E000E146E000E156E000EB5
:101E7000166E158E44EF0FF0000E136E000E146EEA
:101E8000000E156E000E166E2050D8B44AEF0FF0FB
:101E90004CEF0FF054EF0FF02150D8A452EF0FF099
:101EA00054EF0FF05EEF0FF0000E0F6E000E106E8D
:101EB000000E116E000E126EF6EF10F015500F02AC
:101EC000F3CF26F0F4CF27F026501C6E1D6A1E6A51
:101ED0001F6A2750226E236A246A256A1450100252
:101EE000F3CF26F0F4CF27F026501C26000E1D223B
:101EF0001E221F2227502226000E232224222522C2
:101F000013501102F3CF26F0F4CF27F026501C26F1
:101F1000000E1D221E221F2227502226000E2322E1
:101F2000242225221EC01FF01DC01EF01CC01DF063
:101F30001C6A13501002F3CF26F0F4CF27F026507E
:101F40001C2627501D22000E1E22000E1F22145098
:101F50000F02F3CF26F0F4CF27F026501C2627508F
:101F60001D22000E1E22000E1F221EC01FF01DC0CB
:101F70001EF01CC01DF01C6A13500F02F3CF26F098
:101F8000F4CF27F026501C2627501D22000E1E22BB
:101F9000000E1F2215501002F3CF26F0F4CF27F0C9
:101FA0002650222627502322000E2422000E25220E
:101FB00014501102F3CF26F0F4CF27F0265022263A
:101FC00027502322000E2422000E25221550110234
:101FD000F3CF26F0F4CF27F02650176E2750186E57
:101FE000196A1A6A19C01AF018C019F017C018F047
:101FF000176A1750222618502322195024221A50EB
:1020000025221CC017F01DC018F01EC019F01FC0FB
:102010001AF0190E11EF10F0D8901A321932183246
:102020001732E82E0CEF10F01750222618502322FA
:10203000195024221A5025221EC01FF01DC01EF068
:102040001CC01DF01C6A205021C017F0186A17260A
:10205000000E1822820E1724266EFF0E1820276EFF
:1020600047EF10F0D89022362336243625361FAE9F
:102070003CEF10F03EEF10F03FEF10F02280D890D0
:102080001C361D361E361F362606D8A0270624AE5F
:102090004CEF10F04EEF10F032EF10F0000E206E0B
:1020A0001FAE55EF10F057EF10F07BEF10F0FF0E62
:1020B0001C14176EFF0E1D14186EFF0E1E14196EE1
:1020C0007F0E1F141A6E1750181019101A10D8B45A
:1020D0006CEF10F06EEF10F072EF10F0010E206E4A
:1020E0007BEF10F022A077EF10F079EF10F07BEF8C
:1020F00010F06EEF10F02050D8B481EF10F083EFA5
:1021000010F0A7EF10F0010E2226000E2322242249
:10211000252225A08EEF10F090EF10F0A7EF10F021
:1021200022C017F023C018F024C019F025C01AF0FF
:102130001A341A3219321832173217C022F018C066
:1021400023F019C024F01AC025F0264A272A27BEFA
:10215000B2EF10F0275008E12628D8A0B2EF10F017
:10216000B4EF10F0BEEF10F0000E226E000E236EE2
:10217000800E246E7F0E256EECEF10F027BECBEFA5
:1021800010F0275006E12604D8B0C9EF10F0CBEFCD
:1021900010F0D7EF10F0000E226E000E236E000E2E
:1021A000246E000E256E000E1B6EECEF10F026C0A4
:1021B00021F0FF0E2216FF0E23167F0E2416000EAE
:1021C000251621A0E6EF10F0E8EF10F0E9EF10F08F
:1021D000248ED8902130256E1B50251222C00FF07E
:1021E00023C010F024C011F025C012F012000450DA
:1021F000800B116E04500424186E03AE02EF11F030
:1022000004EF11F005EF11F018801850D8B40BEF5F
:1022100011F00DEF11F022EF11F01828D8A413EFF0
:1022200011F015EF11F01DEF11F0000E016E000E10
:10223000026E000E036E000E046E038E000E046E1E
:102240002AEF11F0000E016E000E026E000E036EFA
:10225000000E046E0850800B111A08500824196EE5
:1022600007AE35EF11F037EF11F038EF11F01980AC
:102270001950D8B43EEF11F040EF11F055EF11F0C6
:102280001928D8A446EF11F048EF11F050EF11F0E3
:10229000000E056E000E066E000E076E000E086E34
:1022A000078E000E086E5DEF11F0000E056E000E39
:1022B000066E000E076E000E086E05500610071021
:1022C0000810D8A466EF11F068EF11F080EF11F05C
:1022D000000E016E000E026E000E036E000E046E04
:1022E000800E03127F0E04121150041201C001F07F
:1022F00002C002F003C003F004C004F0C3EF12F008
:102300001850D8A486EF11F088EF11F092EF11F079
:10231000000E016E000E026E000E036E000E046EC3
:10232000C3EF12F0195018C009F00A6A095E000ED6
:102330000A5A7F0E0924126E000E0A20136E01C085
:102340000DF002C00EF003C00FF004C010F0000E3C
:10235000016E000E026E000E036E000E046E000E83
:10236000146E000E156E000E166E000E176E000E27
:10237000196EF3EF11F01950D8B4C1EF11F0C3EF9B
:1023800011F0DAEF11F0D8900D360E360F36103608
:10239000D890013602360336043617AED2EF11F06C
:1023A000D4EF11F0D5EF11F00180D8901436153626
:1023B0001636173605500D5C06500E5807500F584C
:1023C00008501058D8A0E7EF11F0E9EF11F0F2EF44
:1023D00011F0178C05500D5E06500E5A07500F5A1B
:1023E0000850105A192A190E1964F9EF11F0FBEF71
:1023F00011F0BBEF11F00D500E100F101010D8B4EB
:1024000004EF12F006EF12F01EEF12F014801EEF30
:1024100012F0D890013602360336043617AE13EFA9
:1024200012F015EF12F016EF12F00180D89014366A
:102430001536163617361206D8A0130603AE23EF4C
:1024400012F025EF12F009EF12F0000E196E17AE20
:102450002CEF12F02EEF12F052EF12F0FF0E1414C8
:10246000096EFF0E15140A6EFF0E16140B6E7F0E0A
:1024700017140C6E09500A100B100C10D8B443EF4F
:1024800012F045EF12F049EF12F0010E196E52EF03
:1024900012F001A04EEF12F050EF12F052EF12F0D6
:1024A00045EF12F01950D8B458EF12F05AEF12F06D
:1024B0007EEF12F0010E0126000E022203220422FA
:1024C00004A065EF12F067EF12F07EEF12F001C08A
:1024D00009F002C00AF003C00BF004C00CF00C3489
:1024E0000C320B320A32093209C001F00AC002F084
:1024F0000BC003F00CC004F0124A132A13BE89EF7C
:1025000012F0135008E11228D8A089EF12F08BEFD7
:1025100012F096EF12F0000E136E1268000E016EAC
:10252000000E026E000E036E000E046E13BEA3EFCB
:1025300012F0135006E11204D8B0A1EF12F0A3EF8D
:1025400012F0B1EF12F0000E136E000E126E000EBC
:10255000016E000E026E000E036E000E046E000E81
:10256000116E12C018F018A0B8EF12F0BAEF12F006
:10257000BDEF12F0038EBEEF12F0039ED89018301C
:10258000046E74EF11F01200F00E936EF00E8A6E6E
:102590008150F00B0001C66FF00EC619D8A4D3EF1E
:1025A00012F0D5EF12F0C8EF12F08150F00BC66FA9
:1025B000F00EC619D8A4DFEF12F0E1EF12F0C8EF69
:1025C00012F0820E016EDE0EE82EFED7012EFCD731
:1025D000F00E8A6E8150F00B0001C66FF00EC61926
:1025E000D8B4F5EF12F0F7EF12F0EAEF12F08150E5
:1025F000F00BC66FF00EC619D8B401EF13F003EF5D
:1026000013F0EAEF12F0340E016EF20EE82EFED750
:10261000012EFCD78150F00B0001C66FFE0E8A6EB2
:102620008150F00BC66FC6C0C4F0F00EC619D8B406
:102630001CEF13F01EEF13F030EF13F0000EC56F18
:1026400025EF13F08150F00BC46FF00EC419D8A41D
:102650002CEF13F02EEF13F022EF13F094EF13F0A2
:10266000FD0E8A6E8150F00BC66FC6C0C4F0F00E2E
:10267000C619D8B43EEF13F040EF13F052EF13F049
:10268000010EC56F47EF13F08150F00BC46FF00ED1
:10269000C419D8A44EEF13F050EF13F044EF13F029
:1026A00094EF13F0FB0E8A6E8150F00BC66FC6C01C
:1026B000C4F0F00EC619D8B460EF13F062EF13F057
:1026C00074EF13F0020EC56F69EF13F08150F00B39
:1026D000C46FF00EC419D8A470EF13F072EF13F0AA
:1026E00066EF13F094EF13F0F70E8A6E8150F00B43
:1026F000C66FC6C0C4F0F00EC619D8B482EF13F08E
:1027000084EF13F00EEF13F0030EC56F8BEF13F091
:102710008150F00BC46FF00EC419D8A492EF13F0DF
:1027200094EF13F088EF13F0E00EC619D8A49BEFD6
:1027300013F09DEF13F0A8EF13F0C551030DD70E62
:10274000F324D96E000EF420DA6EDF50D9EF13F0C7
:10275000D00EC619D8A4AFEF13F0B1EF13F0BCEF51
:1027600013F0C551030DD80EF324D96E000EF420DA
:10277000DA6EDF50D9EF13F0B00EC619D8A4C3EF4C
:1027800013F0C5EF13F0D0EF13F0C551030DD90EC0
:10279000F324D96E000EF420DA6EDF50D9EF13F077
:1027A000C551030DDA0EF324D96E000EF420DA6E53
:1027B000DF501200ADC02AF0AEC02BF0AFC02CF03D
:1027C000B0C02DF01AC02AF01BC02BF01CC02CF09A
:1027D0001DC02DF0810E1E6EFF0E1F6E2AC020F050
:1027E0002BC021F02CC022F02DC023F0180EFEEFDC
:1027F00013F0D8902332223221322032E82EF9EF22
:1028000013F020501E24286E000E1F20296E29BEB2
:1028100013EF14F0295009E1170E285CD8A013EF2C
:1028200014F015EF14F01FEF14F01AC01AF01BC0CB
:102830001BF01CC01CF01DC01DF0E2EF14F029BEFF
:1028400024EF14F026EF14F096EF14F028C01EF0D9
:10285000FF0E1F6EFF0E206E7F0E216E000E226E89
:102860001E6635EF14F03DEF14F02234223221328F
:1028700020321F321E2E30EF14F01FC024F020C073
:1028800025F021C026F022C027F024502A141E6E05
:1028900025502B141F6E26502C14206E27502D14FB
:1028A000216E1E501F1020102110D8A45AEF14F0D2
:1028B0005CEF14F05EEF14F015EF14F02AC01EF078
:1028C0002BC01FF02CC020F02DC021F0200E6EEF89
:1028D00014F0D890213220321F321E32E82E69EFD8
:1028E00014F01E501F1020102110D8B47AEF14F0ED
:1028F0007CEF14F084EF14F024502A2625502B226C
:1029000026502C2227502D22241C1E6E251C1F6EA3
:10291000261C206E271C216E1E502A161F502B16B7
:1029200020502C1621502D16DAEF14F02AC01EF07C
:102930002BC01FF02CC020F02DC021F0200EA6EFE0
:1029400014F0D890213220321F321E32E82EA1EF2F
:1029500014F01E501F1020102110D8A4B2EF14F054
:10296000B4EF14F0BEEF14F0000E2A6E000E2B6EC2
:10297000000E2C6E000E2D6EDAEF14F0D8902A3473
:102980001E6E2B341F6E2C34206E2D34216E1E5083
:102990001F1020102110D8B4D0EF14F0D2EF14F093
:1029A000DAEF14F0000E2A6E000E2B6E800E2C6EE5
:1029B000BF0E2D6E2AC01AF02BC01BF02CC01CF0CD
:1029C0002DC01DF01200096E0950D8B4EAEF14F0C2
:1029D000ECEF14F00EEF15F004BEF3EF14F0F1EF8E
:1029E00014F00EEF15F001C005F002C006F003C0B0
:1029F00007F004C008F0051E061E071E081E052A63
:102A0000000E06220722082205C00BF006C00CF0BB
:102A100007C00DF008C00EF016EF15F001C00BF066
:102A200002C00CF003C00DF004C00EF00150021003
:102A300003100410D8A41FEF15F021EF15F02BEFB1
:102A400015F0000E016E000E026E000E036E000EF9
:102A5000046EBCEF15F0960E0A6E35EF15F00A2ADB
:102A6000D8900E320D320C320B32000E0B14056E64
:102A7000000E0C14066E000E0D14076EFE0E0E14E2
:102A8000086E0550061007100810D8A44AEF15F07C
:102A90004CEF15F02FEF15F05AEF15F00A2A010E42
:102AA0000B26000E0C220D220E22D8900E320D3273
:102AB0000C320B32000E0B14056E000E0C14066E59
:102AC000000E0D14076EFF0E0E14086E0550061052
:102AD00007100810D8A46FEF15F071EF15F04EEF46
:102AE00015F079EF15F00A06D8900B360C360D3636
:102AF0000E360DBE7EEF15F080EF15F088EF15F065
:102B0000020E0A6086EF15F088EF15F073EF15F0EE
:102B10000AB08DEF15F08FEF15F090EF15F00D9EC8
:102B2000D8900A320AC005F0066A076A086A05C02A
:102B300008F0076A066A056A05500B1206500C1267
:102B400007500D1208500E120950D8B4AAEF15F014
:102B5000ACEF15F0B4EF15F004BEB3EF15F0B1EF24
:102B600015F0B4EF15F00E8E0BC001F00CC002F0A2
:102B70000DC003F00EC004F01200000E166E000E21
:102B8000156E000E0F6E000E0E6EC9EF15F0084A9E
:102B9000092A010E146E08C0F6FF09C0F7FF0800ED
:102BA000F550200AD8B4D7EF15F0D9EF15F0F6EFAD
:102BB00015F0F70E0A6EFF0E0B6E08C0F6FF09C087
:102BC000F7FF0800F5500C6E0D6A0A500C260B50EA
:102BD0000D220D5009E1050E0C5CD8A0F2EF15F0A6
:102BE000F4EF15F0F6EF15F0000E146E14C010F0AF
:102BF000116A10501110D8A400EF16F002EF16F071
:102C0000C7EF15F00CEF16F0000E0F6E010E0E6EF2
:102C1000084A092A41EF16F008C0F6FF09C0F7FF7D
:102C20000800F5500A6E0B6A0B50000AD8B41BEF6F
:102C300016F041EF16F00A502B0AD8B408EF16F040
:102C4000060AD8B404EF16F041EF16F015C001F0F3
:102C500016C002F0000E046E0A0E036E66EC1EF043
:102C600008C0F6FF09C0F7FF0800F550015E000E2E
:102C7000025A300E0124156E000E0220166E08EF67
:102C800016F0D00E0A6EFF0E0B6E08C0F6FF09C0DC
:102C9000F7FF0800F5500C6E0D6A0A500C260B5019
:102CA0000D220D500AE10A0E0C5CD8A05AEF16F066
:102CB0005DEF16F0010E5EEF16F0000E126E136A55
:102CC00012501310D8A467EF16F069EF16F026EF34
:102CD00016F00E500F10D8A470EF16F072EF16F029
:102CE00080EF16F015C00AF016C00BF00A1E0B1E7E
:102CF0000A4A0B2A0AC008F00BC009F084EF16F04C
:102D000015C008F016C009F0120025EC1EF079EC91
:102D10001EF0C4EC12F00001AC6F230EAC19D8A465
:102D200094EF16F096EF16F00DEF17F08BEC1EF007
:102D3000000E056E1E0E066E080E076E000E46ECA7
:102D40001DF0C00EB8EC1CF0C4EC12F00001AC6F2A
:102D50002A0EAC19D8A4AFEF16F0B1EF16F0B5EF0C
:102D600016F044EC1BF0EAEF16F0AC5190EC1CF0BE
:102D7000E30E0001C325D96EDA6A000EDA22ACC078
:102D8000DFFF310EE365C7EF16F0C9EF16F0E2EF93
:102D900016F0340EE361CFEF16F0D1EF16F0E2EF4C
:102DA00016F0330EE319D8A4D8EF16F0DAEF16F0C8
:102DB000E9EF16F0380EE465E0EF16F0E2EF16F0FA
:102DC000E9EF16F0D5EC1DF0580E0001E56F230E6B
:102DD000AC6FC32B230E0001AC19D8A4F2EF16F090
:102DE000F4EF16F0A4EF16F02A0EAC19D8B4FBEFEE
:102DF00016F0FDEF16F0A4EF16F0230EE519D8A497
:102E000004EF17F006EF17F00AEF17F0BAEC1DF019
:102E1000D3EC19F0000E0001C36F230EE519D8A4FE
:102E200014EF17F016EF17F089EF16F0D3EC19F046
:102E300089EF16F000EF00F0033404340A6E0A50F4
:102E4000D8A425EF17F027EF17F031EF17F0000E99
:102E5000016E000E026E000E036E000E046E9EEFF9
:102E600017F001C005F002C006F003C007F004C06F
:102E700008F0200E41EF17F0D890083207320632E2
:102E80000532E82E3CEF17F00550096E038EFF0E59
:102E90000116FF0E0216FF0E0316000E0416960E04
:102EA0000A5E0ABE58EF17F056EF17F06EEF17F0F4
:102EB0000A50800A970FD8B060EF17F062EF17F052
:102EC00064EF17F027EF17F0D89004320332023284
:102ED00001320A3E64EF17F086EF17F01F0E0A6406
:102EE00074EF17F076EF17F07EEF17F027EF17F07B
:102EF000D89001360236033604360A060A50D8A4A2
:102F000084EF17F086EF17F078EF17F00950D8B478
:102F10008CEF17F08EEF17F096EF17F0041E031EDC
:102F2000021E016C000E02220322042201C001F0E5
:102F300002C002F003C003F004C004F01200000E4F
:102F40002814306E000E2914316E800E2A14326E51
:102F50007F0E2B14336E3050311032103310D8A442
:102F6000B4EF17F0B6EF17F0BEEF17F0000E286EB3
:102F7000000E296E000E2A6E000E2B6E000E2C1411
:102F8000306E000E2D14316E800E2E14326E7F0EB8
:102F90002F14336E3050311032103310D8A4D3EFC9
:102FA00017F0D5EF17F0DDEF17F0000E2C6E000EC6
:102FB0002D6E000E2E6E000E2F6E2BAEE2EF17F070
:102FC000E4EF17F0EDEF17F0286C291ED8B0292A8E
:102FD0002A1ED8B02A2A800E2B562FAEF2EF17F0F9
:102FE000F4EF17F0FDEF17F02C6C2D1ED8B02D2A42
:102FF0002E1ED8B02E2A800E2F56000E281A000E34
:10300000291A000E2A1A800E2B1A000E2C1A000EF6
:103010002D1A000E2E1A800E2F1A2C50285C2D50BF
:1030200029582E502A582F502B58D8B01AEF18F084
:103030001CEF18F01FEF18F0D89020EF18F0D88090
:103040001200B1C00BF0B2C00CF0B3C00DF0B4C0B0
:103050000EF001C00BF002C00CF003C00DF004C074
:103060000EF00BC005F00CC006F00DC007F00EC04E
:1030700008F0180E41EF18F0D890083207320632E7
:103080000532E82E3CEF18F00550096E0A6A095027
:103090000A10D8A44EEF18F050EF18F070EF18F0A7
:1030A000D8900B34056E0C34066E0D34076E0E345A
:1030B000086E0550061007100810D8A462EF18F02B
:1030C00064EF18F06AEF18F0000E026E020E016E47
:1030D0009FEF18F0000E026E030E016E9FEF18F0C6
:1030E00009280A10D8A477EF18F079EF18F09BEFB1
:1030F00018F00BC005F00CC006F00DC007F00EC0B4
:1031000008F0090ED8900536063607360836E82E40
:1031100082EF18F00550061007100810D8B493EF8E
:1031200018F096EF18F0010E97EF18F0000E016EF0
:10313000026A9FEF18F0000E026E040E016E12007C
:1031400001C008F002C009F003C00AF004C00BF08F
:103150000506D8A00606052806E10628D8A4B3EF80
:1031600018F0B5EF18F0C2EF18F0000E026E000E66
:10317000016E0AEF19F0084A092A0A4A0B2A0506C5
:10318000D8A0060608C0D9FF09C0DAFFDF50D8B4BE
:10319000CCEF18F0CEEF18F0F9EF18F00AC0F6FFF8
:1031A0000BC0F7FF0800F5500009D8B4DAEF18F0AB
:1031B000DCEF18F0F9EF18F005500610D8B4E3EF83
:1031C00018F0E5EF18F0F9EF18F008C0D9FF09C0C2
:1031D000DAFFDF50076E0AC0F6FF0BC0F7FF0800EA
:1031E000F5500718D8B4F7EF18F0F9EF18F0BBEF67
:1031F00018F008C0D9FF09C0DAFFDF50076E0AC017
:10320000F6FF0BC0F7FF0800F550075C016E026A7D
:10321000D8A00206120003500410D8B412EF19F01F
:1032200014EF19F01DEF19F003500410D8A41BEF90
:1032300019F01DEF19F022EF19F001508FEC1EF07C
:103240006FEF19F020EE04F00350D9260450DA2273
:10325000DE50DE10D8B42FEF19F031EF19F04CEF3B
:1032600019F020EE04F00350D9260450DA2210EEB3
:1032700002F00350E1260450E222DE50E65CE65004
:10328000800A096EDE50800A0958D8B04AEF19F05A
:103290004CEF19F06FEF19F020EE02F00350D92631
:1032A0000450DA22DECF05F0DDCF06F003C0D9FFEF
:1032B00004C0DAFFDECF07F0DDCF08F005500724A9
:1032C000D96E06500820DA6E01C0DFFF20EE02F052
:1032D0000350D9260450DA22DE2A000EDD22120025
:1032E0000001BFA176EF19F078EF19F082EF19F025
:1032F00013C00AF014C00BF011C00CF012C00DF096
:1033000003EC1DF016BE87EF19F089EF19F08FEF6F
:1033100019F015C01AF016C01BF093EF19F0000E4B
:103320001B6E000E1A6E000E196E000E186EA5EFC1
:1033300019F0000E026E200E016E11C003F012C0D3
:1033400004F00BEC19F0184A192A1A50185C19509D
:10335000800A176E1B50800A1758D8A0B2EF19F0D8
:10336000B4EF19F099EF19F00001BFB1BAEF19F0FD
:10337000BCEF19F0C6EF19F013C00AF014C00BF03F
:1033800011C00CF012C00DF003EC1DF013C001F0E1
:1033900014C002F0F0EC1DF01A500124116E1B5005
:1033A0000220126E12003DEC1EF001C0C1F002C0FE
:1033B000C2F0C1C001F0C2C002F0036A046A000E8C
:1033C000E3EC14F001C00FF002C010F003C011F0E4
:1033D00004C012F05A0E136EF50E146EF90E156E2F
:1033E0003E0E166EE2EC0EF00FC0B5F010C0B6F057
:1033F00011C0B7F012C0B8F044EC1BF00001E3516B
:103400000A0DF3CFA8F0F4CFA9F0E451A825AA6FD4
:10341000000EA921AB6FB5C028F0B6C029F0B7C027
:103420002AF0B8C02BF0AAC001F0ABC002F0000E29
:1034300002BEFF0E036E046E010EE3EC14F001C039
:103440002CF002C02DF003C02EF004C02FF09FEC32
:1034500017F0D8B02EEF1AF030EF1AF033EF1AF061
:10346000898234EF1AF089921200000E066E04BEB3
:103470003EEF1AF03CEF1AF044EF1AF0036C041E12
:10348000D8B0042A010E066E02BE4BEF1AF049EFC7
:103490001AF051EF1AF0016C021ED8B0022A010E88
:1034A000061A000E086E000E076E03500410D8B402
:1034B0005CEF1AF05EEF1AF086EF1AF0010E056E5F
:1034C00066EF1AF0D89003360436052A04AE6BEF87
:1034D0001AF06DEF1AF062EF1AF0D890073608363E
:1034E0000350015C04500258D8A079EF1AF07BEF2A
:1034F0001AF080EF1AF00350015E0450025A078060
:10350000D89004320332052E6DEF1AF00650D8B46D
:103510008CEF1AF08EEF1AF092EF1AF0076C081E7B
:10352000D8B0082A07C001F008C002F01200000E4F
:10353000066E02BEA0EF1AF09EEF1AF0A6EF1AF088
:10354000016C021ED8B0022A010E066E04BEADEF59
:103550001AF0ABEF1AF0B1EF1AF0036C041ED8B0FA
:10356000042A03500410D8B4B8EF1AF0BAEF1AF0D6
:10357000DEEF1AF0010E056EC2EF1AF0D890033696
:103580000436052A04AEC7EF1AF0C9EF1AF0BEEFF1
:103590001AF00350015C04500258D8A0D2EF1AF080
:1035A000D4EF1AF0D8EF1AF00350015E0450025A1B
:1035B000D89004320332052EC9EF1AF00650D8B461
:1035C000E4EF1AF0E6EF1AF0EAEF1AF0016C021ECF
:1035D000D8B0022A01C001F002C002F01200000EB1
:1035E0000114096E000E02140A6E800E03140B6E95
:1035F0007F0E04140C6E09500A100B100C10D8A486
:1036000004EF1BF006EF1BF00EEF1BF0000E016E37
:10361000000E026E000E036E000E046E000E051406
:10362000096E000E06140A6E800E07140B6E7F0ED4
:1036300008140C6E09500A100B100C10D8A423EFBC
:103640001BF025EF1BF02DEF1BF0000E056E000E9A
:10365000066E000E076E000E086E055001180FE191
:10366000065002180CE10750031809E1085004182D
:10367000D8B43DEF1BF03FEF1BF042EF1BF0D890AA
:1036800043EF1BF0D8801200C70E0001986F000EA8
:10369000996F300E9A6F080E9B6FB5C09CF0B6C044
:1036A0009DF0B7C09EF0B8C09FF03EEC1CF0000E3D
:1036B000056E120E066E080E076E000E46EC1DF02B
:1036C000060E5F6E130E5E6EAE0EE82EFED75E2EF9
:1036D000FCD75F2EFAD7C00EB8EC1CF0C70E036EF5
:1036E000000E046EE1EC1BF0060E5F6E130E5E6EB4
:1036F000AE0EE82EFED75E2EFCD75F2EFAD7120054
:1037000058C05CF059C05DF0000E0001BA6F000EA9
:10371000B96F9EEF1BF056C040F057C041F05C0EF1
:10372000426E000E436E5AC044F05BC045F0B2ECEE
:103730000CF040500001B9274150BA235CC0F6FF9D
:103740005DC0F7FF0800F5500009D8A4AAEF1BF0F0
:10375000ACEF1BF08BEF1BF0B9C056F0BAC057F0BE
:103760001200BF0E096EFF0E0A6E07C00BF008C0F4
:103770000CF009500B260A500C220C500AE11A0ECC
:103780000B5CD8A0C6EF1BF0C9EF1BF0010ECAEF0F
:103790001BF0000E0D6E0E6A0D500E10D8B4D3EF54
:1037A0001BF0D5EF1BF0DCEF1BF0200E0710076EAF
:1037B0000850086EE0EF1BF007C007F008C008F0E3
:1037C0001200F7EF1BF003C0F6FF04C0F7FFF86A22
:1037D000070EF76403D00800F55005D0F6CFE1FFDF
:1037E000F7CFE2FFE75090EC1CF0034A042A03C035
:1037F000F6FF04C0F7FFF86A070EF76403D008006D
:10380000F55005D0F6CFE1FFF7CFE2FFE750000912
:10381000D8A40DEF1CF00FEF1CF0E3EF1BF012002B
:1038200003C007F004C008F001C009F002C00AF0AC
:103830000750056E0850066E074A082A05C0F6FFB5
:1038400006C0F7FFF86A09C0D9FF0AC0DAFF094AC3
:103850000A2A070EF76403D00800F55005D0F6CF0A
:10386000E1FFF7CFE2FFE750DF6EDF50D8A43BEF78
:103870001CF03DEF1CF018EF1CF012009C0E000134
:10388000A06F000EA16F98C0A2F099C0A3F0000E27
:10389000A56F000EA46F000EA76F000EA66FA20EFC
:1038A000566E000E576E9AC058F09BC059F0A00E8D
:1038B0005A6E000E5B6E80EC1BF00001A45198253F
:1038C000D96EA5519921DA6E000EDF6E1200010E3D
:1038D000076E200E01180210D8B471EF1CF073EFC0
:1038E0001CF08CEF1CF0F70E036EFF0E046E01C08F
:1038F00005F002C006F003500526045006220650CB
:1039000009E1050E055CD8A088EF1CF08AEF1CF0D9
:103910008CEF1CF0000E076E07C001F0026A120067
:10392000026E02C001F0F00E01168C500F0B011058
:103930008C6E8C808C8200F08C92030E016E980E3F
:10394000E82EFED7012EFCD702C001F0013AF00E9E
:1039500001168C500F0B01108C6E8C8200F08C9233
:10396000080E016ECA0EE82EFED7012EFCD71200FB
:10397000026E02C001F0F00E01168C500F0B011008
:103980008C6E8C908C8200F08C92030E016E980EDF
:10399000E82EFED7012EFCD702C001F0013AF00E4E
:1039A00001168C500F0B01108C6E8C8200F08C92E3
:1039B000080E016ECA0EE82EFED7012EFCD71200AB
:1039C000000E2C1A000E2D1A000E2E1A800E2F1A21
:1039D00028C001F029C002F02AC003F02BC004F077
:1039E0002CC005F02DC006F02EC007F02FC008F047
:1039F00052EC0AF001C028F002C029F003C02AF0FE
:103A000004C02BF01200000E106E000E0F6E14EFAB
:103A10001DF00EC001F0026A0CC003F00DC004F0EE
:103A20000BEC19F00F4A102A0F500A24D96E1050CF
:103A30000B20DA6EDF500E6E0E50D8A422EF1DF070
:103A400024EF1DF009EF1DF01200060EF66E3D0E7C
:103A5000F76E000EF86E00EED7F010EE0FF00900D2
:103A6000F5CFEEFFE550E150FAE101EE00F0500E27
:103A7000EE6AE806FDE100EEADF02A0EEE6AE80619
:103A8000FDE1000EF86E000185EF16F0086E020EE3
:103A900008604DEF1DF04FEF1DF058EF1DF0055081
:103AA0000F0B8009096E0950B8EC1CF05FEF1DF098
:103AB00005500F0BC009096E0950B8EC1CF006C088
:103AC00003F007C004F0E1EC1BF01200BF0E036E20
:103AD000FF0E046E01C005F002C006F0035005267B
:103AE0000450062206500AE11A0E055CD8A07BEFAE
:103AF0001DF07EEF1DF0010E7FEF1DF0000E016E38
:103B0000026A12000150021003100410D8B48BEFA7
:103B10001DF08DEF1DF095EF1DF0000E011A000E47
:103B2000021A000E031A800E041A01C001F002C02E
:103B300002F003C003F004C004F01200D00E036EC4
:103B4000FF0E046E01C005F002C006F0035005260A
:103B50000450062206500AE10A0E055CD8A0B3EF15
:103B60001DF0B6EF1DF0010EB7EF1DF0000E016E57
:103B7000026A12008BEC1EF08B82000E056E360E70
:103B8000066E080E076E000E46EC1DF0060E0B6E5C
:103B9000130E0A6EAE0EE82EFED70A2EFCD70B2EA1
:103BA000FAD78B928BEC1EF012008BEC1EF08B8000
:103BB000000E056E2A0E066E080E076E000E46EC0D
:103BC0001DF0060E0B6E130E0A6EAE0EE82EFED71B
:103BD0000A2EFCD70B2EFAD78B908BEC1EF012001E
:103BE00001C003F002C004F0F8EF1DF0014A022A00
:103BF00001C0D9FF02C0DAFFDF50D8A402EF1EF0E7
:103C000004EF1EF0F6EF1DF00350015C016E04504E
:103C10000258026E1200000E956E270E036EF50E0E
:103C2000E82EFED7032EFCD700F0020EB8EC1CF0F5
:103C3000280EB8EC1CF0010EB8EC1CF00C0EB8EC21
:103C40001CF0060EB8EC1CF012000F0EC16E010E37
:103C5000926EF00E936E000E946E000E956E700EC6
:103C6000D312D350FC0B0209D36E720ED36E53ECF9
:103C70001EF0F19E0BEC1EF01200C282C2B243EFA6
:103C80001EF045EF1EF03EEF1EF0C4CF05F0066AB1
:103C90000550036EC350056E03C006F005C001F069
:103CA00006C002F01200C150F00B0E09C16ECF0E1B
:103CB000C116C30EC216C050C70B1009C06EC0504B
:103CC000F80B0109C06EC08EC280120001500302C1
:103CD000F3CF05F0F4CF06F001500402F3500626AE
:103CE00002500302F350062605C001F006C002F0A0
:103CF0001200000E056E010E066E080E076E000E15
:103D000046EC1DF012003132333435363738392A5B
:053D10003023303030CB
:0A3D1600010EB8EC1CF012001200C0
:020000040020DA
:08000000FFFFFFFFFFFFFFFF00
:020000040030CA
:0E0000000088181EFF8181FF0FC00FE00F4027
:00000001FF
